:100000000C942A001895000018950000189500001F
:10001000189500001895000018950000189500002C
:10002000189500001895000018950000189500001C
:10003000189500001895000018950000189500000C
:1000400018950000189500001895000018950000FC
:10005000189500008FE58DBFC8E3E0E24E2E84E0E6
:100060008EBFD4E0F4E05F2EA89584B7082E877F7A
:1000700084BF88E1992781BD91BDEEEFF3E0A0E652
:10008000B0E088278D933197E9F766248D9A81EC4B
:100090008FBD85E08EBD80E087BB8FEF84BB8FEF87
:1000A0008ABB84E690E0A0E6B0E08D939C93A0E646
:1000B000B0E08D919C919BBD8ABDA89AA998709142
:1000C00062007F7770936200B09B0C948B00A0E677
:1000D000B0E00D911C91065F1F4FA0E6B0E00D93BC
:1000E0001C93A0E6B0E00D911C910A3F50E015076B
:1000F00010F40C9481008AEF90E0A0E6B0E08D93BC
:100100009C93A0E6B0E08D919C919BBD8ABD8AEF47
:1001100090E00E941202B19B0C94B300A0E6B0E004
:100120000D911C910A501040A0E6B0E00D931C9375
:10013000A0E6B0E00D911C910A3050E0150718F0D0
:1001400011F00C94A9008AE090E0A0E6B0E08D9355
:100150009C93A0E6B0E08D919C919BBD8ABD8AEFF7
:1001600090E00E941202B29B0C94D800A2E6B0E08C
:100170008C9187FB16F40C94C60070916200706835
:1001800070936200A898A99A0C94D400A2E6B0E0FB
:100190008C9187FB16F00C94D400709162007F77ED
:1001A00070936200A89AA9988AEF90E00E941202C8
:1001B000A0E6B0E0BA93AA930E94E30022960C94C2
:1001C0006400F894FFCFA881B9810D911C91093189
:1001D00050E0150710F00C94F100AF9AAE9870E063
:1001E0007BBBA881B9810D911C91023350E01507AA
:1001F00081E008F080E08F93A881B9810D911C9176
:10020000093150E0150781E008F480E09F918923CF
:10021000882311F40C941001AE9AAF9A70E07BBB66
:10022000A881B9810D911C910B3450E0150781E034
:1002300008F080E08F93A881B9810D911C91023361
:1002400050E0150781E008F480E09F91892388231E
:1002500011F40C942F01AE9AAF9A71E07BBBA88188
:10026000B9810D911C91043650E0150781E008F02A
:1002700080E08F93A881B9810D911C910B3450E0DF
:10028000150781E008F480E09F918923882311F409
:100290000C944E01AE9AAF9A73E07BBBA881B981F2
:1002A0000D911C910D3750E0150781E008F080E0BA
:1002B0008F93A881B9810D911C91043650E01507E8
:1002C00081E008F480E09F918923882311F40C9445
:1002D0006D01AE9AAF9A77E07BBBA881B9810D9191
:1002E0001C91063950E0150781E008F080E08F93FB
:1002F000A881B9810D911C910D3750E0150781E05F
:1003000008F480E09F918923882311F40C948C01D8
:10031000AE9AAF9A7FE07BBBA881B9810D911C9109
:100320000F3A50E0150781E008F080E08F93A88134
:10033000B9810D911C91063950E0150781E008F450
:1003400080E09F918923882311F40C94AB01AE9A2D
:10035000AF9A7FE17BBBA881B9810D911C91083CCC
:1003600050E0150781E008F080E08F93A881B98103
:100370000D911C910F3A50E0150781E008F480E0E0
:100380009F918923882311F40C94CA01AE9AAF9AE5
:100390007FE37BBBA881B9810D911C91013E50E0A8
:1003A000150781E008F080E08F93A881B9810D9155
:1003B0001C91083C50E0150781E008F480E09F9113
:1003C0008923882311F40C94E901AE9AAF9A7FE750
:1003D0007BBBA881B9810D911C910F3F50E015079F
:1003E00081E008F080E08F93A881B9810D911C9184
:1003F000013E50E0150781E008F480E09F918923D9
:10040000882311F40C940802AE9AAF9A7FEF7BBB5D
:1004100008953197F1F70895689462F80895E89483
:1004200062F80895EF93FF93EE27E82BE92B31F064
:10043000EAEFF0E03197F1F70197D1F7FF91EF91F3
:0204400008951D
:00000001FF
